{"abi":[{"type":"constructor","inputs":[{"name":"owner","type":"address","internalType":"address"},{"name":"_usdcToken","type":"address","internalType":"address"}],"stateMutability":"nonpayable"},{"type":"function","name":"STAKE_AMOUNT","inputs":[],"outputs":[{"name":"","type":"uint256","internalType":"uint256"}],"stateMutability":"view"},{"type":"function","name":"START_HEALTH","inputs":[],"outputs":[{"name":"","type":"uint256","internalType":"uint256"}],"stateMutability":"view"},{"type":"function","name":"addAttributeToPlayer","inputs":[{"name":"playerAddress","type":"address","internalType":"address"},{"name":"attributeId","type":"uint256","internalType":"uint256"}],"outputs":[],"stateMutability":"nonpayable"},{"type":"function","name":"attributeCounter","inputs":[],"outputs":[{"name":"","type":"uint256","internalType":"uint256"}],"stateMutability":"view"},{"type":"function","name":"attributes","inputs":[{"name":"","type":"uint256","internalType":"uint256"}],"outputs":[{"name":"description","type":"string","internalType":"string"},{"name":"healthChange","type":"int256","internalType":"int256"}],"stateMutability":"view"},{"type":"function","name":"contractBalance","inputs":[],"outputs":[{"name":"","type":"uint256","internalType":"uint256"}],"stateMutability":"view"},{"type":"function","name":"createAttribute","inputs":[{"name":"description","type":"string","internalType":"string"},{"name":"healthChange","type":"int256","internalType":"int256"}],"outputs":[],"stateMutability":"nonpayable"},{"type":"function","name":"getContractInfo","inputs":[],"outputs":[{"name":"","type":"uint256","internalType":"uint256"},{"name":"","type":"uint256","internalType":"uint256"}],"stateMutability":"view"},{"type":"function","name":"getPlayerInfo","inputs":[{"name":"playerAddress","type":"address","internalType":"address"}],"outputs":[{"name":"health","type":"uint256","internalType":"uint256"},{"name":"stakedAmount","type":"uint256","internalType":"uint256"},{"name":"isActive","type":"bool","internalType":"bool"},{"name":"attributeIds","type":"uint256[]","internalType":"uint256[]"}],"stateMutability":"view"},{"type":"function","name":"joinGame","inputs":[],"outputs":[],"stateMutability":"nonpayable"},{"type":"function","name":"leaveGame","inputs":[],"outputs":[],"stateMutability":"nonpayable"},{"type":"function","name":"modifyAttribute","inputs":[{"name":"attributeId","type":"uint256","internalType":"uint256"},{"name":"newHealthChange","type":"int256","internalType":"int256"}],"outputs":[],"stateMutability":"nonpayable"},{"type":"function","name":"owner","inputs":[],"outputs":[{"name":"","type":"address","internalType":"address"}],"stateMutability":"view"},{"type":"function","name":"players","inputs":[{"name":"","type":"address","internalType":"address"}],"outputs":[{"name":"health","type":"uint256","internalType":"uint256"},{"name":"stakedAmount","type":"uint256","internalType":"uint256"},{"name":"isActive","type":"bool","internalType":"bool"}],"stateMutability":"view"},{"type":"function","name":"removeAttributeFromPlayer","inputs":[{"name":"playerAddress","type":"address","internalType":"address"},{"name":"attributeId","type":"uint256","internalType":"uint256"}],"outputs":[],"stateMutability":"nonpayable"},{"type":"function","name":"renounceOwnership","inputs":[],"outputs":[],"stateMutability":"nonpayable"},{"type":"function","name":"totalStaked","inputs":[],"outputs":[{"name":"","type":"uint256","internalType":"uint256"}],"stateMutability":"view"},{"type":"function","name":"transferOwnership","inputs":[{"name":"newOwner","type":"address","internalType":"address"}],"outputs":[],"stateMutability":"nonpayable"},{"type":"function","name":"updateHealth","inputs":[{"name":"playerAddress","type":"address","internalType":"address"},{"name":"newHealth","type":"uint256","internalType":"uint256"}],"outputs":[],"stateMutability":"nonpayable"},{"type":"function","name":"updateStake","inputs":[{"name":"playerAddress","type":"address","internalType":"address"},{"name":"newStake","type":"uint256","internalType":"uint256"}],"outputs":[],"stateMutability":"nonpayable"},{"type":"function","name":"usdcToken","inputs":[],"outputs":[{"name":"","type":"address","internalType":"contract IERC20"}],"stateMutability":"view"},{"type":"event","name":"AttributeAddedToPlayer","inputs":[{"name":"player","type":"address","indexed":false,"internalType":"address"},{"name":"attributeId","type":"uint256","indexed":false,"internalType":"uint256"}],"anonymous":false},{"type":"event","name":"AttributeCreated","inputs":[{"name":"attributeId","type":"uint256","indexed":false,"internalType":"uint256"},{"name":"description","type":"string","indexed":false,"internalType":"string"},{"name":"healthChange","type":"int256","indexed":false,"internalType":"int256"}],"anonymous":false},{"type":"event","name":"AttributeModified","inputs":[{"name":"attributeId","type":"uint256","indexed":false,"internalType":"uint256"},{"name":"newHealthChange","type":"int256","indexed":false,"internalType":"int256"}],"anonymous":false},{"type":"event","name":"AttributeRemovedFromPlayer","inputs":[{"name":"player","type":"address","indexed":false,"internalType":"address"},{"name":"attributeId","type":"uint256","indexed":false,"internalType":"uint256"}],"anonymous":false},{"type":"event","name":"HealthUpdated","inputs":[{"name":"player","type":"address","indexed":false,"internalType":"address"},{"name":"newHealth","type":"uint256","indexed":false,"internalType":"uint256"}],"anonymous":false},{"type":"event","name":"OwnershipTransferred","inputs":[{"name":"previousOwner","type":"address","indexed":true,"internalType":"address"},{"name":"newOwner","type":"address","indexed":true,"internalType":"address"}],"anonymous":false},{"type":"event","name":"PlayerDied","inputs":[{"name":"player","type":"address","indexed":false,"internalType":"address"}],"anonymous":false},{"type":"event","name":"PlayerJoined","inputs":[{"name":"player","type":"address","indexed":false,"internalType":"address"}],"anonymous":false},{"type":"event","name":"PlayerLeft","inputs":[{"name":"player","type":"address","indexed":false,"internalType":"address"}],"anonymous":false},{"type":"event","name":"StakeUpdated","inputs":[{"name":"player","type":"address","indexed":false,"internalType":"address"},{"name":"newStake","type":"uint256","indexed":false,"internalType":"uint256"}],"anonymous":false},{"type":"error","name":"OwnableInvalidOwner","inputs":[{"name":"owner","type":"address","internalType":"address"}]},{"type":"error","name":"OwnableUnauthorizedAccount","inputs":[{"name":"account","type":"address","internalType":"address"}]},{"type":"error","name":"ReentrancyGuardReentrantCall","inputs":[]}],"bytecode":{"object":"0x608060405234801561001057600080fd5b5060405161172b38038061172b83398101604081905261002f916100fe565b816001600160a01b03811661005e57604051631e4fbdf760e01b81526000600482015260240160405180910390fd5b61006781610092565b5060018055600280546001600160a01b0319166001600160a01b039290921691909117905550610131565b600080546001600160a01b038381166001600160a01b0319831681178455604051919092169283917f8be0079c531659141344cd1fd0a4f28419497f9722a3daafe3b4186f6b6457e09190a35050565b80516001600160a01b03811681146100f957600080fd5b919050565b6000806040838503121561011157600080fd5b61011a836100e2565b9150610128602084016100e2565b90509250929050565b6115eb806101406000396000f3fe608060405234801561001057600080fd5b50600436106101375760003560e01c80638b7afe2e116100b8578063d05dcc6a1161007c578063d05dcc6a1461025d578063d4f77b1c1461027e578063e2eb41ff14610286578063f2fde38b146102d5578063f604f7a7146102e8578063faf5625f146102fb57600080fd5b80638b7afe2e146102155780638da5cb5b1461021e5780639f65080b1461022f578063b1501f9c14610242578063ce97dc2c1461024a57600080fd5b806347e7b4b6116100ff57806347e7b4b6146101b357806359328401146101c6578063715018a6146101e95780637cc1f867146101f1578063817b1cd21461020c57600080fd5b8063021ffd6c1461013c5780630e2454eb1461015157806311eac855146101645780631f09f4f414610194578063289e929b146101aa575b600080fd5b61014f61014a366004611137565b610305565b005b61014f61015f366004611137565b610447565b600254610177906001600160a01b031681565b6040516001600160a01b0390911681526020015b60405180910390f35b61019c606481565b60405190815260200161018b565b61019c60055481565b61014f6101c1366004611177565b61055c565b6101d96101d436600461122c565b6105fb565b60405161018b949392919061124e565b61014f6106bc565b6006546007546040805192835260208301919091520161018b565b61019c60065481565b61019c60075481565b6000546001600160a01b0316610177565b61014f61023d366004611137565b6106d0565b61014f610852565b61014f610258366004611137565b6109f2565b61027061026b3660046112ae565b610b60565b60405161018b92919061130d565b61014f610c04565b6102b861029436600461122c565b60036020526000908152604090208054600182015460029092015490919060ff1683565b60408051938452602084019290925215159082015260600161018b565b61014f6102e336600461122c565b610e18565b61014f6102f636600461132f565b610e56565b61019c624c4b4081565b61030d610f04565b6001600160a01b0382166000908152600360205260409020600281015460ff166103525760405162461bcd60e51b815260040161034990611351565b60405180910390fd5b81815560008290036103fe576001808201546001600160a01b0385166000908152600360208190526040822082815593840182905560028401805460ff191690559192916103a29083018261109d565b505080600660008282546103b69190611393565b90915550506040516001600160a01b03851681527f88bf50a7849ba8fc4e0db1592f0ed0c6167f36acc6d3c8b9774b0bf399eea206906020015b60405180910390a150505050565b604080516001600160a01b0385168152602081018490527fed648c43be297bff1707fe804a13477d1ae1b86a2124f0f34b063d943baf442a91015b60405180910390a15b505050565b61044f610f04565b6001600160a01b0382166000908152600360205260409020600281015460ff1661048b5760405162461bcd60e51b815260040161034990611351565b60008281526004602052604081206001015490036104e65760405162461bcd60e51b8152602060048201526018602482015277105d1d1c9a589d5d1948191bd95cc81b9bdd08195e1a5cdd60421b6044820152606401610349565b600381018054600181810183556000928352602080842090920185905584835260049091526040909120015461051d908490610f31565b604080516001600160a01b0385168152602081018490527f49c3c9a94c2a96976f461e8cae775a62a3afae9414ea53748240b78d63ee50009101610439565b610564610f04565b60058054906000610574836113ac565b909155505060408051808201825283815260208082018490526005546000908152600490915291909120815181906105ac908261144f565b50602082015181600101559050507f30734d2e3086311e07783211daf4af130a138d19e16693d10731415b6d8a346a60055483836040516105ef9392919061150f565b60405180910390a15050565b6001600160a01b0381166000908152600360208181526040808420815160808101835281548152600182015481850152600282015460ff1615158184015293810180548351818602810186019094528084528695869560609587959294929385880193919283018282801561068f57602002820191906000526020600020905b81548152602001906001019080831161067b575b505050919092525050815160208301516040840151606090940151919a9099509297509550909350505050565b6106c4610f04565b6106ce6000611023565b565b6106d8610f04565b6001600160a01b0382166000908152600360205260409020600281015460ff166107145760405162461bcd60e51b815260040161034990611351565b6007548211156107665760405162461bcd60e51b815260206004820152601d60248201527f496e73756666696369656e7420636f6e74726163742062616c616e63650000006044820152606401610349565b600081600101548311610788578282600101546107839190611393565b610797565b60018201546107979084611393565b905081600101548311156107db5780600660008282546107b79190611538565b9250508190555080600760008282546107d09190611393565b9091555061080c9050565b80600660008282546107ed9190611393565b9250508190555080600760008282546108069190611538565b90915550505b60018201839055604080516001600160a01b0386168152602081018590527fab0e25dc39626189cfb41155020ba89e726b10244275733e9d7c63cf33ffccdb91016103f0565b61085a611073565b336000908152600360205260409020600281015460ff1661088d5760405162461bcd60e51b815260040161034990611351565b600180820154336000908152600360208190526040822082815593840182905560028401805460ff191690559192916108c89083018261109d565b505080600660008282546108dc9190611393565b9250508190555080600760008282546108f59190611393565b909155505060025460405163a9059cbb60e01b8152336004820152602481018390526001600160a01b039091169063a9059cbb906044016020604051808303816000875af115801561094b573d6000803e3d6000fd5b505050506040513d601f19601f8201168201806040525081019061096f919061154b565b6109b45760405162461bcd60e51b815260206004820152601660248201527514995d1d5c9b881d1c985b9cd9995c8819985a5b195960521b6044820152606401610349565b6040513381527f282b6298c0318f5d7d7f2483a6823972bdbe9d2798bcfe461159151be7d7b9699060200160405180910390a150506106ce60018055565b6109fa610f04565b6001600160a01b0382166000908152600360205260409020600281015460ff16610a365760405162461bcd60e51b815260040161034990611351565b60005b6003820154811015610b5a5782826003018281548110610a5b57610a5b61156d565b906000526020600020015403610b5257600382018054610a7d90600190611393565b81548110610a8d57610a8d61156d565b9060005260206000200154826003018281548110610aad57610aad61156d565b60009182526020909120015560038201805480610acc57610acc611583565b60019003818190600052602060002001600090559055610b0b846004600086815260200190815260200160002060010154610b0690611599565b610f31565b604080516001600160a01b0386168152602081018590527fad6454e20743702a27b168178fc6356cb642f855d6f564a03427ffbfeab35fd4910160405180910390a1610b5a565b600101610a39565b50505050565b600460205260009081526040902080548190610b7b906113c5565b80601f0160208091040260200160405190810160405280929190818152602001828054610ba7906113c5565b8015610bf45780601f10610bc957610100808354040283529160200191610bf4565b820191906000526020600020905b815481529060010190602001808311610bd757829003601f168201915b5050505050908060010154905082565b610c0c611073565b3360009081526003602052604090206002015460ff1615610c685760405162461bcd60e51b8152602060048201526016602482015275506c6179657220616c726561647920696e2067616d6560501b6044820152606401610349565b6002546040516323b872dd60e01b8152336004820152306024820152624c4b4060448201526001600160a01b03909116906323b872dd906064016020604051808303816000875af1158015610cc1573d6000803e3d6000fd5b505050506040513d601f19601f82011682018060405250810190610ce5919061154b565b610d295760405162461bcd60e51b815260206004820152601560248201527414dd185ad9481d1c985b9cd9995c8819985a5b1959605a1b6044820152606401610349565b6040805160808101825260648152624c4b4060208083019182526001838501818152855160008082528185018852606087019182523381526003808652979020865181559451928501929092555160028401805460ff191691151591909117905551805193949293610da29385019291909101906110bb565b50905050624c4b4060066000828254610dbb9190611538565b92505081905550624c4b4060076000828254610dd79190611538565b90915550506040513381527f31e760aa525306aba638a784082a013b6a1cc0a9a1789f3f22281c0453b10b1f9060200160405180910390a16106ce60018055565b610e20610f04565b6001600160a01b038116610e4a57604051631e4fbdf760e01b815260006004820152602401610349565b610e5381611023565b50565b610e5e610f04565b6000828152600460205260408120600101549003610eb95760405162461bcd60e51b8152602060048201526018602482015277105d1d1c9a589d5d1948191bd95cc81b9bdd08195e1a5cdd60421b6044820152606401610349565b60008281526004602090815260409182902060010183905581518481529081018390527fa2ac4d5c43b558181d40c48365d17b1b57ec708ea109f38b335c738282cf89c491016105ef565b6000546001600160a01b031633146106ce5760405163118cdaa760e01b8152336004820152602401610349565b6001600160a01b038216600090815260036020526040812090821315610f65578054610f5e908390611538565b8155610f94565b610f6e82611599565b815411610f7c576000610f91565b610f8582611599565b8154610f919190611393565b81555b8054600003610fe1576001808201546001600160a01b0385166000908152600360208190526040822082815593840182905560028401805460ff191690559192916103a29083018261109d565b8054604080516001600160a01b038616815260208101929092527fed648c43be297bff1707fe804a13477d1ae1b86a2124f0f34b063d943baf442a9101610439565b600080546001600160a01b038381166001600160a01b0319831681178455604051919092169283917f8be0079c531659141344cd1fd0a4f28419497f9722a3daafe3b4186f6b6457e09190a35050565b60026001540361109657604051633ee5aeb560e01b815260040160405180910390fd5b6002600155565b5080546000825590600052602060002090810190610e539190611106565b8280548282559060005260206000209081019282156110f6579160200282015b828111156110f65782518255916020019190600101906110db565b50611102929150611106565b5090565b5b808211156111025760008155600101611107565b80356001600160a01b038116811461113257600080fd5b919050565b6000806040838503121561114a57600080fd5b6111538361111b565b946020939093013593505050565b634e487b7160e01b600052604160045260246000fd5b6000806040838503121561118a57600080fd5b823567ffffffffffffffff808211156111a257600080fd5b818501915085601f8301126111b657600080fd5b8135818111156111c8576111c8611161565b604051601f8201601f19908116603f011681019083821181831017156111f0576111f0611161565b8160405282815288602084870101111561120957600080fd5b826020860160208301376000602093820184015298969091013596505050505050565b60006020828403121561123e57600080fd5b6112478261111b565b9392505050565b600060808201868352602086602085015285151560408501526080606085015281855180845260a08601915060208701935060005b8181101561129f57845183529383019391830191600101611283565b50909998505050505050505050565b6000602082840312156112c057600080fd5b5035919050565b6000815180845260005b818110156112ed576020818501810151868301820152016112d1565b506000602082860101526020601f19601f83011685010191505092915050565b60408152600061132060408301856112c7565b90508260208301529392505050565b6000806040838503121561134257600080fd5b50508035926020909101359150565b602080825260129082015271506c61796572206e6f7420696e2067616d6560701b604082015260600190565b634e487b7160e01b600052601160045260246000fd5b818103818111156113a6576113a661137d565b92915050565b6000600182016113be576113be61137d565b5060010190565b600181811c908216806113d957607f821691505b6020821081036113f957634e487b7160e01b600052602260045260246000fd5b50919050565b601f821115610442576000816000526020600020601f850160051c810160208610156114285750805b601f850160051c820191505b8181101561144757828155600101611434565b505050505050565b815167ffffffffffffffff81111561146957611469611161565b61147d8161147784546113c5565b846113ff565b602080601f8311600181146114b2576000841561149a5750858301515b600019600386901b1c1916600185901b178555611447565b600085815260208120601f198616915b828110156114e1578886015182559484019460019091019084016114c2565b50858210156114ff5787850151600019600388901b60f8161c191681555b5050505050600190811b01905550565b83815260606020820152600061152860608301856112c7565b9050826040830152949350505050565b808201808211156113a6576113a661137d565b60006020828403121561155d57600080fd5b8151801515811461124757600080fd5b634e487b7160e01b600052603260045260246000fd5b634e487b7160e01b600052603160045260246000fd5b6000600160ff1b82016115ae576115ae61137d565b506000039056fea2646970667358221220357372b6d3677ed9661e3c071ff36c9003bad52a80cb5a4f352ebf226d1db9bf64736f6c63430008190033","linkReferences":{}},"methodIdentifiers":{"STAKE_AMOUNT()":"faf5625f","START_HEALTH()":"1f09f4f4","addAttributeToPlayer(address,uint256)":"0e2454eb","attributeCounter()":"289e929b","attributes(uint256)":"d05dcc6a","contractBalance()":"8b7afe2e","createAttribute(string,int256)":"47e7b4b6","getContractInfo()":"7cc1f867","getPlayerInfo(address)":"59328401","joinGame()":"d4f77b1c","leaveGame()":"b1501f9c","modifyAttribute(uint256,int256)":"f604f7a7","owner()":"8da5cb5b","players(address)":"e2eb41ff","removeAttributeFromPlayer(address,uint256)":"ce97dc2c","renounceOwnership()":"715018a6","totalStaked()":"817b1cd2","transferOwnership(address)":"f2fde38b","updateHealth(address,uint256)":"021ffd6c","updateStake(address,uint256)":"9f65080b","usdcToken()":"11eac855"},"id":27}